{
  "contractName": "dictionary",
  "abi": [
    {
      "constant": true,
      "inputs": [],
      "name": "creator",
      "outputs": [
        {
          "name": "",
          "type": "address"
        }
      ],
      "payable": false,
      "stateMutability": "view",
      "type": "function"
    },
    {
      "constant": true,
      "inputs": [],
      "name": "changetime",
      "outputs": [
        {
          "name": "",
          "type": "uint256"
        }
      ],
      "payable": false,
      "stateMutability": "view",
      "type": "function"
    },
    {
      "constant": true,
      "inputs": [],
      "name": "accessType",
      "outputs": [
        {
          "name": "",
          "type": "bool"
        }
      ],
      "payable": false,
      "stateMutability": "view",
      "type": "function"
    },
    {
      "constant": true,
      "inputs": [],
      "name": "uG",
      "outputs": [
        {
          "name": "",
          "type": "address"
        }
      ],
      "payable": false,
      "stateMutability": "view",
      "type": "function"
    },
    {
      "constant": true,
      "inputs": [],
      "name": "createtime",
      "outputs": [
        {
          "name": "",
          "type": "uint256"
        }
      ],
      "payable": false,
      "stateMutability": "view",
      "type": "function"
    },
    {
      "inputs": [
        {
          "name": "sender",
          "type": "address"
        }
      ],
      "payable": false,
      "stateMutability": "nonpayable",
      "type": "constructor"
    },
    {
      "constant": true,
      "inputs": [
        {
          "name": "filename",
          "type": "string"
        }
      ],
      "name": "getFileInfo",
      "outputs": [
        {
          "name": "isExit",
          "type": "bool"
        },
        {
          "name": "fname",
          "type": "string"
        },
        {
          "name": "fileType",
          "type": "uint256"
        },
        {
          "name": "createTime",
          "type": "uint256"
        },
        {
          "name": "changeTime",
          "type": "uint256"
        },
        {
          "name": "accessControl",
          "type": "address"
        },
        {
          "name": "fSize",
          "type": "uint256"
        },
        {
          "name": "isRec",
          "type": "bool"
        },
        {
          "name": "subDic",
          "type": "address"
        },
        {
          "name": "fileHash",
          "type": "string"
        }
      ],
      "payable": false,
      "stateMutability": "view",
      "type": "function"
    },
    {
      "constant": false,
      "inputs": [
        {
          "name": "newUG",
          "type": "address"
        }
      ],
      "name": "updateAccessControl",
      "outputs": [],
      "payable": false,
      "stateMutability": "nonpayable",
      "type": "function"
    },
    {
      "constant": true,
      "inputs": [
        {
          "name": "key",
          "type": "address"
        }
      ],
      "name": "getUserPerssion",
      "outputs": [
        {
          "name": "read",
          "type": "bool"
        },
        {
          "name": "update",
          "type": "bool"
        }
      ],
      "payable": false,
      "stateMutability": "view",
      "type": "function"
    },
    {
      "constant": false,
      "inputs": [
        {
          "name": "newName",
          "type": "string"
        },
        {
          "name": "newFileType",
          "type": "uint256"
        },
        {
          "name": "newUG",
          "type": "address"
        },
        {
          "name": "newFileSize",
          "type": "uint256"
        },
        {
          "name": "newIsRec",
          "type": "bool"
        },
        {
          "name": "newsubDic",
          "type": "address"
        },
        {
          "name": "newFileBlockHash",
          "type": "string"
        }
      ],
      "name": "addOrUpdateFile",
      "outputs": [
        {
          "name": "res",
          "type": "bool"
        }
      ],
      "payable": false,
      "stateMutability": "nonpayable",
      "type": "function"
    },
    {
      "constant": false,
      "inputs": [
        {
          "name": "filename",
          "type": "string"
        }
      ],
      "name": "removeFile",
      "outputs": [
        {
          "name": "res",
          "type": "bool"
        }
      ],
      "payable": false,
      "stateMutability": "nonpayable",
      "type": "function"
    },
    {
      "constant": true,
      "inputs": [
        {
          "name": "keyIndex",
          "type": "uint256"
        }
      ],
      "name": "getNextFile",
      "outputs": [
        {
          "name": "r_keyIndex",
          "type": "uint256"
        },
        {
          "name": "fname",
          "type": "string"
        },
        {
          "name": "fileType",
          "type": "uint256"
        },
        {
          "name": "createTime",
          "type": "uint256"
        },
        {
          "name": "changeTime",
          "type": "uint256"
        },
        {
          "name": "accessControl",
          "type": "address"
        },
        {
          "name": "fSize",
          "type": "uint256"
        },
        {
          "name": "isRec",
          "type": "bool"
        },
        {
          "name": "subDic",
          "type": "address"
        },
        {
          "name": "fileHash",
          "type": "string"
        }
      ],
      "payable": false,
      "stateMutability": "view",
      "type": "function"
    }
  ],
  "bytecode": "0x608060405260008060146101000a81548160ff02191690831515021790555034801561002a57600080fd5b5060405160208061250a8339810180604052602081101561004a57600080fd5b8101908080519060200190929190505050806000806101000a81548173ffffffffffffffffffffffffffffffffffffffff021916908373ffffffffffffffffffffffffffffffffffffffff1602179055505061245f806100ab6000396000f3fe608060405234801561001057600080fd5b50600436106100a95760003560e01c8063b55ec18a11610071578063b55ec18a1461055c578063b8dd1b821461057e578063e0175ec5146105c8578063e7106101146105e6578063f1afe04d146107b0578063f89488db14610883576100a9565b806302d05d3f146100ae5780630cc9c17b146100f8578063147b619514610330578063703f7f3e146104d7578063878f70c9146104f5575b600080fd5b6100b66108c7565b604051808273ffffffffffffffffffffffffffffffffffffffff1673ffffffffffffffffffffffffffffffffffffffff16815260200191505060405180910390f35b6101b16004803603602081101561010e57600080fd5b810190808035906020019064010000000081111561012b57600080fd5b82018360208201111561013d57600080fd5b8035906020019184600183028401116401000000008311171561015f57600080fd5b91908080601f016020809104026020016040519081016040528093929190818152602001838380828437600081840152601f19601f8201169050808301925050505050505091929192905050506108ec565b604051808b151515158152602001806020018a81526020018981526020018881526020018773ffffffffffffffffffffffffffffffffffffffff1673ffffffffffffffffffffffffffffffffffffffff168152602001868152602001851515151581526020018473ffffffffffffffffffffffffffffffffffffffff1673ffffffffffffffffffffffffffffffffffffffff1681526020018060200183810383528c818151815260200191508051906020019080838360005b8381101561028557808201518184015260208101905061026a565b50505050905090810190601f1680156102b25780820380516001836020036101000a031916815260200191505b50838103825284818151815260200191508051906020019080838360005b838110156102eb5780820151818401526020810190506102d0565b50505050905090810190601f1680156103185780820380516001836020036101000a031916815260200191505b509c5050505050505050505050505060405180910390f35b61035c6004803603602081101561034657600080fd5b8101908080359060200190929190505050610c7e565b604051808b8152602001806020018a81526020018981526020018881526020018773ffffffffffffffffffffffffffffffffffffffff1673ffffffffffffffffffffffffffffffffffffffff168152602001868152602001851515151581526020018473ffffffffffffffffffffffffffffffffffffffff1673ffffffffffffffffffffffffffffffffffffffff1681526020018060200183810383528c818151815260200191508051906020019080838360005b8381101561042c578082015181840152602081019050610411565b50505050905090810190601f1680156104595780820380516001836020036101000a031916815260200191505b50838103825284818151815260200191508051906020019080838360005b83811015610492578082015181840152602081019050610477565b50505050905090810190601f1680156104bf5780820380516001836020036101000a031916815260200191505b509c5050505050505050505050505060405180910390f35b6104df611200565b6040518082815260200191505060405180910390f35b6105376004803603602081101561050b57600080fd5b81019080803573ffffffffffffffffffffffffffffffffffffffff169060200190929190505050611206565b6040518083151515158152602001821515151581526020019250505060405180910390f35b61056461139a565b604051808215151515815260200191505060405180910390f35b6105866113ad565b604051808273ffffffffffffffffffffffffffffffffffffffff1673ffffffffffffffffffffffffffffffffffffffff16815260200191505060405180910390f35b6105d06113d3565b6040518082815260200191505060405180910390f35b610796600480360360e08110156105fc57600080fd5b810190808035906020019064010000000081111561061957600080fd5b82018360208201111561062b57600080fd5b8035906020019184600183028401116401000000008311171561064d57600080fd5b91908080601f016020809104026020016040519081016040528093929190818152602001838380828437600081840152601f19601f82011690508083019250505050505050919291929080359060200190929190803573ffffffffffffffffffffffffffffffffffffffff16906020019092919080359060200190929190803515159060200190929190803573ffffffffffffffffffffffffffffffffffffffff1690602001909291908035906020019064010000000081111561071057600080fd5b82018360208201111561072257600080fd5b8035906020019184600183028401116401000000008311171561074457600080fd5b91908080601f016020809104026020016040519081016040528093929190818152602001838380828437600081840152601f19601f8201169050808301925050505050505091929192905050506113d9565b604051808215151515815260200191505060405180910390f35b610869600480360360208110156107c657600080fd5b81019080803590602001906401000000008111156107e357600080fd5b8201836020820111156107f557600080fd5b8035906020019184600183028401116401000000008311171561081757600080fd5b91908080601f016020809104026020016040519081016040528093929190818152602001838380828437600081840152601f19601f8201169050808301925050505050505091929192905050506117a0565b604051808215151515815260200191505060405180910390f35b6108c56004803603602081101561089957600080fd5b81019080803573ffffffffffffffffffffffffffffffffffffffff1690602001909291905050506119d3565b005b6000809054906101000a900473ffffffffffffffffffffffffffffffffffffffff1681565b60006060600080600080600080600060606109056121b3565b60036000018c6040518082805190602001908083835b6020831061093e578051825260208201915060208101905060208303925061091b565b6001836020036101000a038019825116818451168082178552505050505050905001915050908152602001604051809103902060010160405180610120016040529081600082018054600181600116156101000203166002900480601f016020809104026020016040519081016040528092919081815260200182805460018160011615610100020316600290048015610a195780601f106109ee57610100808354040283529160200191610a19565b820191906000526020600020905b8154815290600101906020018083116109fc57829003601f168201915b505050505081526020016001820154815260200160028201548152602001600382015481526020016004820160009054906101000a900473ffffffffffffffffffffffffffffffffffffffff1673ffffffffffffffffffffffffffffffffffffffff1673ffffffffffffffffffffffffffffffffffffffff168152602001600582015481526020016006820160009054906101000a900460ff161515151581526020016006820160019054906101000a900473ffffffffffffffffffffffffffffffffffffffff1673ffffffffffffffffffffffffffffffffffffffff1673ffffffffffffffffffffffffffffffffffffffff168152602001600782018054600181600116156101000203166002900480601f016020809104026020016040519081016040528092919081815260200182805460018160011615610100020316600290048015610baa5780601f10610b7f57610100808354040283529160200191610baa565b820191906000526020600020905b815481529060010190602001808311610b8d57829003601f168201915b5050505050815250509050600060036000018d6040518082805190602001908083835b60208310610bf05780518252602082019150602081019050602083039250610bcd565b6001836020036101000a03801982511681845116808217855250505050505090500191505090815260200160405180910390206000015411816000015182602001518360400151846060015185608001518660a001518760c001518860e001518961010001518898508090509a509a509a509a509a509a509a509a509a509a50509193959799509193959799565b60006060600080600080600080600060605b6003600101805490508b108015610cd2575060036001018b81548110610cb257fe5b906000526020600020906002020160010160009054906101000a900460ff165b15610ce4578a806001019b5050610c90565b60011515610e24600360405180604001604052908160018201805480602002602001604051908101604052809291908181526020016000905b82821015610e0c5783829060005260206000209060020201604051806040016040529081600082018054600181600116156101000203166002900480601f016020809104026020016040519081016040528092919081815260200182805460018160011615610100020316600290048015610dd95780601f10610dae57610100808354040283529160200191610dd9565b820191906000526020600020905b815481529060010190602001808311610dbc57829003601f168201915b505050505081526020016001820160009054906101000a900460ff16151515158152505081526020019060010190610d1d565b5050505081526020016002820154815250508d61211c565b151514156111f257606060036001018c81548110610e3e57fe5b90600052602060002090600202016000018054600181600116156101000203166002900480601f016020809104026020016040519081016040528092919081815260200182805460018160011615610100020316600290048015610ee35780601f10610eb857610100808354040283529160200191610ee3565b820191906000526020600020905b815481529060010190602001808311610ec657829003601f168201915b50505050509050610ef26121b3565b6003600001826040518082805190602001908083835b60208310610f2b5780518252602082019150602081019050602083039250610f08565b6001836020036101000a038019825116818451168082178552505050505050905001915050908152602001604051809103902060010160405180610120016040529081600082018054600181600116156101000203166002900480601f0160208091040260200160405190810160405280929190818152602001828054600181600116156101000203166002900480156110065780601f10610fdb57610100808354040283529160200191611006565b820191906000526020600020905b815481529060010190602001808311610fe957829003601f168201915b505050505081526020016001820154815260200160028201548152602001600382015481526020016004820160009054906101000a900473ffffffffffffffffffffffffffffffffffffffff1673ffffffffffffffffffffffffffffffffffffffff1673ffffffffffffffffffffffffffffffffffffffff168152602001600582015481526020016006820160009054906101000a900460ff161515151581526020016006820160019054906101000a900473ffffffffffffffffffffffffffffffffffffffff1673ffffffffffffffffffffffffffffffffffffffff1673ffffffffffffffffffffffffffffffffffffffff168152602001600782018054600181600116156101000203166002900480601f0160208091040260200160405190810160405280929190818152602001828054600181600116156101000203166002900480156111975780601f1061116c57610100808354040283529160200191611197565b820191906000526020600020905b81548152906001019060200180831161117a57829003601f168201915b50505050508152505090508c816000015182602001518360400151846060015185608001518660a001518760c001518860e001518961010001518898508090509b509b509b509b509b509b509b509b509b509b5050506111f3565b5b9193959799509193959799565b60025481565b60008060001515600060149054906101000a900460ff16151514156112315760018091509150611395565b6000809054906101000a900473ffffffffffffffffffffffffffffffffffffffff1673ffffffffffffffffffffffffffffffffffffffff168373ffffffffffffffffffffffffffffffffffffffff1614156112925760018091509150611395565b6000806000600660009054906101000a900473ffffffffffffffffffffffffffffffffffffffff1673ffffffffffffffffffffffffffffffffffffffff1663878f70c9876040518263ffffffff1660e01b8152600401808273ffffffffffffffffffffffffffffffffffffffff1673ffffffffffffffffffffffffffffffffffffffff16815260200191505060606040518083038186803b15801561133657600080fd5b505afa15801561134a573d6000803e3d6000fd5b505050506040513d606081101561136057600080fd5b810190808051906020019092919080519060200190929190805190602001909291905050509250925092508282945094505050505b915091565b600060149054906101000a900460ff1681565b600660009054906101000a900473ffffffffffffffffffffffffffffffffffffffff1681565b60015481565b60008060006113e733611206565b9150915060011515811515141561178e57600060036000018b6040518082805190602001908083835b602083106114335780518252602082019150602081019050602083039250611410565b6001836020036101000a03801982511681845116808217855250505050505090500191505090815260200160405180910390206000015490506040518061012001604052808c81526020018b815260200142815260200142815260200160011515891515146114a2578a6114c6565b600660009054906101000a900473ffffffffffffffffffffffffffffffffffffffff165b73ffffffffffffffffffffffffffffffffffffffff16815260200189815260200188151581526020018773ffffffffffffffffffffffffffffffffffffffff1681526020018681525060036000018c6040518082805190602001908083835b602083106115485780518252602082019150602081019050602083039250611525565b6001836020036101000a0380198251168184511680821785525050505050509050019150509081526020016040518091039020600101600082015181600001908051906020019061159a92919061222d565b5060208201518160010155604082015181600201556060820151816003015560808201518160040160006101000a81548173ffffffffffffffffffffffffffffffffffffffff021916908373ffffffffffffffffffffffffffffffffffffffff16021790555060a0820151816005015560c08201518160060160006101000a81548160ff02191690831515021790555060e08201518160060160016101000a81548173ffffffffffffffffffffffffffffffffffffffff021916908373ffffffffffffffffffffffffffffffffffffffff16021790555061010082015181600701908051906020019061168e92919061222d565b5090505060008111156116a75760019350505050611795565b600360010180548091906001016116be91906122ad565b90506001810160036000018c6040518082805190602001908083835b602083106116fd57805182526020820191506020810190506020830392506116da565b6001836020036101000a0380198251168184511680821785525050505050509050019150509081526020016040518091039020600001819055508a6003600101828154811061174857fe5b9060005260206000209060020201600001908051906020019061176c9291906122df565b5060036002016000815480929190600101919050555060019350505050611795565b6000925050505b979650505050505050565b60008060006117ae33611206565b915091506001151581151514156119c75760006003600001856040518082805190602001908083835b602083106117fa57805182526020820191506020810190506020830392506117d7565b6001836020036101000a0380198251168184511680821785525050505050509050019150509081526020016040518091039020600001549050600081141561184857600093505050506119ce565b6003600001856040518082805190602001908083835b60208310611881578051825260208201915060208101905060208303925061185e565b6001836020036101000a038019825116818451168082178552505050505050905001915050908152602001604051809103902060008082016000905560018201600080820160006118d2919061235f565b6001820160009055600282016000905560038201600090556004820160006101000a81549073ffffffffffffffffffffffffffffffffffffffff021916905560058201600090556006820160006101000a81549060ff02191690556006820160016101000a81549073ffffffffffffffffffffffffffffffffffffffff0219169055600782016000611964919061235f565b5050505060016003600101600183038154811061197d57fe5b906000526020600020906002020160010160006101000a81548160ff02191690831515021790555060036002016000815480929190600190039190505550600193505050506119ce565b6000925050505b919050565b6000809054906101000a900473ffffffffffffffffffffffffffffffffffffffff1673ffffffffffffffffffffffffffffffffffffffff163373ffffffffffffffffffffffffffffffffffffffff1614611a78576040517f08c379a00000000000000000000000000000000000000000000000000000000081526004018080602001828103825260248152602001806124106024913960400191505060405180910390fd5b6001600060146101000a81548160ff02191690831515021790555080600660006101000a81548173ffffffffffffffffffffffffffffffffffffffff021916908373ffffffffffffffffffffffffffffffffffffffff1602179055506000611c11600360405180604001604052908160018201805480602002602001604051908101604052809291908181526020016000905b82821015611bfa5783829060005260206000209060020201604051806040016040529081600082018054600181600116156101000203166002900480601f016020809104026020016040519081016040528092919081815260200182805460018160011615610100020316600290048015611bc75780601f10611b9c57610100808354040283529160200191611bc7565b820191906000526020600020905b815481529060010190602001808311611baa57829003601f168201915b505050505081526020016001820160009054906101000a900460ff16151515158152505081526020019060010190611b0b565b50505050815260200160028201548152505061212e565b90505b611d50600360405180604001604052908160018201805480602002602001604051908101604052809291908181526020016000905b82821015611d385783829060005260206000209060020201604051806040016040529081600082018054600181600116156101000203166002900480601f016020809104026020016040519081016040528092919081815260200182805460018160011615610100020316600290048015611d055780601f10611cda57610100808354040283529160200191611d05565b820191906000526020600020905b815481529060010190602001808311611ce857829003601f168201915b505050505081526020016001820160009054906101000a900460ff16151515158152505081526020019060010190611c49565b5050505081526020016002820154815250508261211c565b1561211857606060036001018281548110611d6757fe5b90600052602060002090600202016000018054600181600116156101000203166002900480601f016020809104026020016040519081016040528092919081815260200182805460018160011615610100020316600290048015611e0c5780601f10611de157610100808354040283529160200191611e0c565b820191906000526020600020905b815481529060010190602001808311611def57829003601f168201915b5050505050905060006003600001826040518082805190602001908083835b60208310611e4e5780518252602082019150602081019050602083039250611e2b565b6001836020036101000a03801982511681845116808217855250505050505090500191505090815260200160405180910390206001019050600115158160060160009054906101000a900460ff1615151415611fd357600660009054906101000a900473ffffffffffffffffffffffffffffffffffffffff168160040160006101000a81548173ffffffffffffffffffffffffffffffffffffffff021916908373ffffffffffffffffffffffffffffffffffffffff160217905550600081600101541415611fd2578060060160019054906101000a900473ffffffffffffffffffffffffffffffffffffffff1673ffffffffffffffffffffffffffffffffffffffff1663f89488db856040518263ffffffff1660e01b8152600401808273ffffffffffffffffffffffffffffffffffffffff1673ffffffffffffffffffffffffffffffffffffffff168152602001915050600060405180830381600087803b158015611fb957600080fd5b505af1158015611fcd573d6000803e3d6000fd5b505050505b5b5050612111600360405180604001604052908160018201805480602002602001604051908101604052809291908181526020016000905b828210156120f95783829060005260206000209060020201604051806040016040529081600082018054600181600116156101000203166002900480601f0160208091040260200160405190810160405280929190818152602001828054600181600116156101000203166002900480156120c65780601f1061209b576101008083540402835291602001916120c6565b820191906000526020600020905b8154815290600101906020018083116120a957829003601f168201915b505050505081526020016001820160009054906101000a900460ff1615151515815250508152602001906001019061200a565b50505050815260200160028201548152505082612161565b9050611c14565b5050565b60008260000151518210905092915050565b600061215a827fffffffffffffffffffffffffffffffffffffffffffffffffffffffffffffffff612161565b9050919050565b600081806001019250505b8260000151518210801561219857508260000151828151811061218b57fe5b6020026020010151602001515b156121aa57818060010192505061216c565b81905092915050565b60405180610120016040528060608152602001600081526020016000815260200160008152602001600073ffffffffffffffffffffffffffffffffffffffff16815260200160008152602001600015158152602001600073ffffffffffffffffffffffffffffffffffffffff168152602001606081525090565b828054600181600116156101000203166002900490600052602060002090601f016020900481019282601f1061226e57805160ff191683800117855561229c565b8280016001018555821561229c579182015b8281111561229b578251825591602001919060010190612280565b5b5090506122a991906123a7565b5090565b8154818355818111156122da576002028160020283600052602060002091820191016122d991906123cc565b5b505050565b828054600181600116156101000203166002900490600052602060002090601f016020900481019282601f1061232057805160ff191683800117855561234e565b8280016001018555821561234e579182015b8281111561234d578251825591602001919060010190612332565b5b50905061235b91906123a7565b5090565b50805460018160011615610100020316600290046000825580601f1061238557506123a4565b601f0160209004906000526020600020908101906123a391906123a7565b5b50565b6123c991905b808211156123c55760008160009055506001016123ad565b5090565b90565b61240c91905b8082111561240857600080820160006123eb919061235f565b6001820160006101000a81549060ff0219169055506002016123d2565b5090565b9056fe4f6e6c792063726561746f722063616e2063616c6c20746869732066756e6374696f6e2ea165627a7a72305820a8ae47e12eba0f1cc5cd469ae691ff85123c9826a048b3562e5d099986b0593c0029",
  "source": "pragma solidity >=0.4.22 <0.7.0;\r\n\r\nimport \"./userGroup.sol\";\r\n\r\ncontract dictionary {\r\n    address         public  creator;\r\n    //string          public  name;\r\n    //int             public  fileSize = 0;\r\n    bool            public  accessType = false;\r\n    uint            public  createtime;\r\n    uint            public  changetime;  \r\n    _dicMapping     dicmapping;\r\n    userGroup       public  uG;\r\n    \r\n    \r\n    modifier onlyCreator {\r\n        require(\r\n            (msg.sender == creator),\r\n            \"Only creator can call this function.\"\r\n        );\r\n        _;\r\n    }\r\n    \r\n    struct _fileInfo {\r\n        string      name;\r\n        uint        fileType;       //0 dic ,1 file\r\n        uint        createTime;\r\n        uint        changeTime;\r\n        userGroup   accessControl;\r\n        uint        fileSize;\r\n        bool        isRec;\r\n        dictionary  subDic;\r\n        string      fileHash;\r\n    }\r\n    \r\n    struct _dicMapping {\r\n        mapping(string => IndexValue) data;\r\n        KeyFlag[] keys;\r\n        uint size;\r\n    }\r\n    struct IndexValue { uint keyIndex; _fileInfo value; }\r\n    struct KeyFlag { string key; bool deleted; }\r\n    \r\n    \r\n    constructor(address sender) public{\r\n        creator = sender;\r\n    }\r\n\r\n    \r\n    function getFileInfo(string memory filename) public view returns (\r\n        bool        isExit,\r\n        string      memory fname,\r\n        uint        fileType,       //0 dic ,1 file\r\n        uint        createTime,\r\n        uint        changeTime,\r\n        address     accessControl,\r\n        uint        fSize,\r\n        bool        isRec,\r\n        address     subDic,\r\n        string      memory fileHash) \r\n    {\r\n        _fileInfo memory f = dicmapping.data[filename].value;\r\n        \r\n        return (\r\n            dicmapping.data[filename].keyIndex > 0,\r\n            f.name,\r\n            f.fileType,\r\n            f.createTime,\r\n            f.changeTime,\r\n            address(f.accessControl),\r\n            f.fileSize,\r\n            f.isRec,\r\n            address(f.subDic),\r\n            f.fileHash\r\n            );\r\n    }\r\n\r\n    function updateAccessControl(address newUG) public onlyCreator {\r\n        accessType = true;\r\n        uG = userGroup(newUG);\r\n        for (uint256 i = iterate_start(dicmapping); iterate_valid(dicmapping, i); i = iterate_next(dicmapping, i))\r\n        {\r\n            string memory _name = dicmapping.keys[i].key;\r\n            _fileInfo storage filePointer = dicmapping.data[_name].value;\r\n            if(filePointer.isRec == true) \r\n            {\r\n                filePointer.accessControl = uG;\r\n                if( filePointer.fileType == 0)\r\n                {\r\n                    filePointer.subDic.updateAccessControl(newUG);\r\n                }\r\n            }\r\n        }\r\n    }\r\n    \r\n    function getUserPerssion(address key) public view returns (bool read,bool update) {\r\n        if(accessType == false) return (true,true);\r\n        if(key == creator) return (true,true);\r\n        (bool _read,bool _update,bool change) = uG.getUserPerssion(key);\r\n        return (_read,_update);\r\n    }\r\n    \r\n    // function updateDicInfo(string memory newName,address newUG) public returns (bool res)\r\n    // {\r\n    //     (bool read,bool update) = getUserPerssion(msg.sender);\r\n    //     if(update == true)\r\n    //     {\r\n    //         //name = newName;\r\n    //         updateAccessControl(newUG);\r\n    //         return true;\r\n    //     } \r\n    //     else \r\n    //         return false;\r\n    // }\r\n    \r\n    function addOrUpdateFile(string memory newName, uint newFileType,address newUG,uint newFileSize,\r\n    bool newIsRec,address newsubDic,string memory newFileBlockHash) public returns (bool res)\r\n    {\r\n        (bool read,bool update) = getUserPerssion(msg.sender);\r\n        if(update == true)\r\n        {\r\n            \r\n            uint keyIndex = dicmapping.data[newName].keyIndex;\r\n            dicmapping.data[newName].value = _fileInfo(newName,newFileType,now,now,\r\n                newIsRec == true ? uG:userGroup(newUG)\r\n                ,newFileSize,newIsRec,dictionary(newsubDic),newFileBlockHash);\r\n                //update\r\n            if (keyIndex > 0)\r\n                return true;\r\n                //add \r\n            else\r\n            {\r\n                keyIndex = dicmapping.keys.length++;\r\n                dicmapping.data[newName].keyIndex = keyIndex + 1;\r\n                dicmapping.keys[keyIndex].key = newName;\r\n                dicmapping.size++;\r\n                return true;\r\n            }\r\n        } \r\n        else \r\n            return false;\r\n    }\r\n    \r\n    function removeFile(string memory filename) public returns (bool res){\r\n        (bool read,bool update) = getUserPerssion(msg.sender);\r\n        if(update == true)\r\n        {\r\n            uint keyIndex = dicmapping.data[filename].keyIndex;\r\n            if (keyIndex == 0)\r\n                return false;\r\n            delete dicmapping.data[filename];\r\n            dicmapping.keys[keyIndex - 1].deleted = true;\r\n            dicmapping.size --;\r\n            return true;\r\n        } \r\n        else \r\n            return false;\r\n    }\r\n    \r\n    \r\n    //public use \r\n    function getNextFile(uint keyIndex) public view returns(\r\n        uint        r_keyIndex,\r\n        string      memory fname,\r\n        uint        fileType,       //0 dic ,1 file\r\n        uint        createTime,\r\n        uint        changeTime,\r\n        address     accessControl,\r\n        uint        fSize,\r\n        bool        isRec,\r\n        address     subDic,\r\n        string      memory fileHash)\r\n    {\r\n        while (keyIndex < dicmapping.keys.length && dicmapping.keys[keyIndex].deleted)\r\n            keyIndex++;\r\n        if(iterate_valid(dicmapping,keyIndex) == true) {\r\n            string memory key = dicmapping.keys[keyIndex].key;\r\n            _fileInfo memory f = dicmapping.data[key].value;\r\n                    return (\r\n                        keyIndex,\r\n                        f.name,\r\n                        f.fileType,\r\n                        f.createTime,\r\n                        f.changeTime,\r\n                        address(f.accessControl),\r\n                        f.fileSize,\r\n                        f.isRec,\r\n                        address(f.subDic),\r\n                        f.fileHash\r\n                        );\r\n        }\r\n    }\r\n\r\n\r\n    //internal use\r\n    function iterate_start(_dicMapping memory self) internal pure returns (uint keyIndex)\r\n    {\r\n        return iterate_next(self, uint(-1));\r\n    }\r\n    \r\n    function iterate_valid(_dicMapping memory self, uint keyIndex) internal pure returns (bool)\r\n    {\r\n        return keyIndex < self.keys.length;\r\n    }\r\n\r\n    function iterate_next(_dicMapping memory self, uint keyIndex) internal pure returns (uint r_keyIndex)\r\n    {\r\n        keyIndex++;\r\n        while (keyIndex < self.keys.length && self.keys[keyIndex].deleted)\r\n            keyIndex++;\r\n        return keyIndex;\r\n    }\r\n}\r\n\r\n\r\n\r\n",
  "sourcePath": "C:\\Go\\workspace\\src\\github.com\\ipfs\\go-ipfs\\dicContract\\contracts\\dictionary.sol",
  "compiler": {
    "name": "solc",
    "version": "0.5.8+commit.23d335f2.Emscripten.clang"
  },
  "schemaVersion": "3.0.11",
  "updatedAt": "2019-08-01T11:16:50.345Z",
  "devdoc": {
    "methods": {}
  },
  "userdoc": {
    "methods": {}
  }
}