{
  "contractName": "TokenCreator",
  "abi": [
    {
      "constant": false,
      "inputs": [
        {
          "name": "name",
          "type": "string"
        }
      ],
      "name": "createToken",
      "outputs": [
        {
          "name": "tokenAddress",
          "type": "address"
        }
      ],
      "payable": false,
      "stateMutability": "nonpayable",
      "type": "function"
    },
    {
      "constant": false,
      "inputs": [
        {
          "name": "tokenAddress",
          "type": "address"
        },
        {
          "name": "name",
          "type": "string"
        }
      ],
      "name": "changeName",
      "outputs": [],
      "payable": false,
      "stateMutability": "nonpayable",
      "type": "function"
    },
    {
      "constant": true,
      "inputs": [
        {
          "name": "currentOwner",
          "type": "address"
        },
        {
          "name": "newOwner",
          "type": "address"
        }
      ],
      "name": "isTokenTransferOK",
      "outputs": [
        {
          "name": "ok",
          "type": "bool"
        }
      ],
      "payable": false,
      "stateMutability": "pure",
      "type": "function"
    }
  ],
  "bytecode": "0x608060405234801561001057600080fd5b50610b3d806100206000396000f3fe608060405234801561001057600080fd5b50600436106100415760003560e01c806345576f941461004657806345ca25ed14610141578063c3cee9c11461021c575b600080fd5b6100ff6004803603602081101561005c57600080fd5b810190808035906020019064010000000081111561007957600080fd5b82018360208201111561008b57600080fd5b803590602001918460018302840111640100000000831117156100ad57600080fd5b91908080601f016020809104026020016040519081016040528093929190818152602001838380828437600081840152601f19601f820116905080830192505050505050509192919290505050610298565b604051808273ffffffffffffffffffffffffffffffffffffffff1673ffffffffffffffffffffffffffffffffffffffff16815260200191505060405180910390f35b61021a6004803603604081101561015757600080fd5b81019080803573ffffffffffffffffffffffffffffffffffffffff1690602001909291908035906020019064010000000081111561019457600080fd5b8201836020820111156101a657600080fd5b803590602001918460018302840111640100000000831117156101c857600080fd5b91908080601f016020809104026020016040519081016040528093929190818152602001838380828437600081840152601f19601f82011690508083019250505050505050919291929050505061033a565b005b61027e6004803603604081101561023257600080fd5b81019080803573ffffffffffffffffffffffffffffffffffffffff169060200190929190803573ffffffffffffffffffffffffffffffffffffffff16906020019092919050505061040e565b604051808215151515815260200191505060405180910390f35b6000816040516102a7906104dd565b8080602001828103825283818151815260200191508051906020019080838360005b838110156102e45780820151818401526020810190506102c9565b50505050905090810190601f1680156103115780820380516001836020036101000a031916815260200191505b5092505050604051809103906000f080158015610332573d6000803e3d6000fd5b509050919050565b8173ffffffffffffffffffffffffffffffffffffffff16635353a2d8826040518263ffffffff1660e01b81526004018080602001828103825283818151815260200191508051906020019080838360005b838110156103a657808201518184015260208101905061038b565b50505050905090810190601f1680156103d35780820380516001836020036101000a031916815260200191505b5092505050600060405180830381600087803b1580156103f257600080fd5b505af1158015610406573d6000803e3d6000fd5b505050505050565b6000607f60f81b8383604051602001808373ffffffffffffffffffffffffffffffffffffffff1673ffffffffffffffffffffffffffffffffffffffff1660601b81526014018273ffffffffffffffffffffffffffffffffffffffff1673ffffffffffffffffffffffffffffffffffffffff1660601b815260140192505050604051602081830303815290604052805190602001206000602081106104ae57fe5b1a60f81b7effffffffffffffffffffffffffffffffffffffffffffffffffffffffffffff191614905092915050565b610627806104eb8339019056fe608060405234801561001057600080fd5b506040516106273803806106278339810180604052602081101561003357600080fd5b81019080805164010000000081111561004b57600080fd5b8281019050602081018481111561006157600080fd5b815185600182028301116401000000008211171561007e57600080fd5b505092919050505033600160006101000a81548173ffffffffffffffffffffffffffffffffffffffff021916908373ffffffffffffffffffffffffffffffffffffffff160217905550336000806101000a81548173ffffffffffffffffffffffffffffffffffffffff021916908373ffffffffffffffffffffffffffffffffffffffff160217905550806002908051906020019061011d929190610124565b50506101c9565b828054600181600116156101000203166002900490600052602060002090601f016020900481019282601f1061016557805160ff1916838001178555610193565b82800160010185558215610193579182015b82811115610192578251825591602001919060010190610177565b5b5090506101a091906101a4565b5090565b6101c691905b808211156101c25760008160009055506001016101aa565b5090565b90565b61044f806101d86000396000f3fe608060405234801561001057600080fd5b50600436106100365760003560e01c80631a6952301461003b5780635353a2d81461007f575b600080fd5b61007d6004803603602081101561005157600080fd5b81019080803573ffffffffffffffffffffffffffffffffffffffff16906020019092919050505061013a565b005b6101386004803603602081101561009557600080fd5b81019080803590602001906401000000008111156100b257600080fd5b8201836020820111156100c457600080fd5b803590602001918460018302840111640100000000831117156100e657600080fd5b91908080601f016020809104026020016040519081016040528093929190818152602001838380828437600081840152601f19601f82011690508083019250505050505050919291929050505061030e565b005b600160009054906101000a900473ffffffffffffffffffffffffffffffffffffffff1673ffffffffffffffffffffffffffffffffffffffff163373ffffffffffffffffffffffffffffffffffffffff16146101945761030b565b6000809054906101000a900473ffffffffffffffffffffffffffffffffffffffff1673ffffffffffffffffffffffffffffffffffffffff1663c3cee9c1600160009054906101000a900473ffffffffffffffffffffffffffffffffffffffff16836040518363ffffffff1660e01b8152600401808373ffffffffffffffffffffffffffffffffffffffff1673ffffffffffffffffffffffffffffffffffffffff1681526020018273ffffffffffffffffffffffffffffffffffffffff1673ffffffffffffffffffffffffffffffffffffffff1681526020019250505060206040518083038186803b15801561028857600080fd5b505afa15801561029c573d6000803e3d6000fd5b505050506040513d60208110156102b257600080fd5b81019080805190602001909291905050501561030a5780600160006101000a81548173ffffffffffffffffffffffffffffffffffffffff021916908373ffffffffffffffffffffffffffffffffffffffff1602179055505b5b50565b6000809054906101000a900473ffffffffffffffffffffffffffffffffffffffff1673ffffffffffffffffffffffffffffffffffffffff163373ffffffffffffffffffffffffffffffffffffffff16141561037b57806002908051906020019061037992919061037e565b505b50565b828054600181600116156101000203166002900490600052602060002090601f016020900481019282601f106103bf57805160ff19168380011785556103ed565b828001600101855582156103ed579182015b828111156103ec5782518255916020019190600101906103d1565b5b5090506103fa91906103fe565b5090565b61042091905b8082111561041c576000816000905550600101610404565b5090565b9056fea165627a7a72305820f277d401fc9891b99ed8806fb8230f91003f38c120bc1e715cb61ec8c6576ae00029a165627a7a723058207c21d069c17b6218b65cae6d7eb6ae98216cfc56c26a53c4782799f2e44ad1610029",
  "source": "pragma solidity >=0.4.22 <0.7.0;\r\n\r\n\r\ncontract OwnedToken {\r\n    // `TokenCreator` is a contract type that is defined below.\r\n    // It is fine to reference it as long as it is not used\r\n    // to create a new contract.\r\n    TokenCreator creator;\r\n    address owner;\r\n    string name;\r\n\r\n    // This is the constructor which registers the\r\n    // creator and the assigned name.\r\n    constructor(string memory _name) public {\r\n        // State variables are accessed via their name\r\n        // and not via e.g. `this.owner`. Functions can\r\n        // be accessed directly or through `this.f`,\r\n        // but the latter provides an external view\r\n        // to the function. Especially in the constructor,\r\n        // you should not access functions externally,\r\n        // because the function does not exist yet.\r\n        // See the next section for details.\r\n        owner = msg.sender;\r\n\r\n        // We do an explicit type conversion from `address`\r\n        // to `TokenCreator` and assume that the type of\r\n        // the calling contract is `TokenCreator`, there is\r\n        // no real way to check that.\r\n        creator = TokenCreator(msg.sender);\r\n        name = _name;\r\n    }\r\n\r\n    function changeName(string memory newName) public {\r\n        // Only the creator can alter the name --\r\n        // the comparison is possible since contracts\r\n        // are explicitly convertible to addresses.\r\n        if (msg.sender == address(creator))\r\n            name = newName;\r\n    }\r\n\r\n    function transfer(address newOwner) public {\r\n        // Only the current owner can transfer the token.\r\n        if (msg.sender != owner) return;\r\n\r\n        // We ask the creator contract if the transfer\r\n        // should proceed by using a function of the\r\n        // `TokenCreator` contract defined below. If\r\n        // the call fails (e.g. due to out-of-gas),\r\n        // the execution also fails here.\r\n        if (creator.isTokenTransferOK(owner, newOwner))\r\n            owner = newOwner;\r\n    }\r\n}\r\n\r\n\r\ncontract TokenCreator {\r\n    function createToken(string memory name)\r\n        public\r\n        returns (OwnedToken tokenAddress)\r\n    {\r\n        // Create a new `Token` contract and return its address.\r\n        // From the JavaScript side, the return type is\r\n        // `address`, as this is the closest type available in\r\n        // the ABI.\r\n        return new OwnedToken(name);\r\n    }\r\n\r\n    function changeName(OwnedToken tokenAddress, string memory name) public {\r\n        // Again, the external type of `tokenAddress` is\r\n        // simply `address`.\r\n        tokenAddress.changeName(name);\r\n    }\r\n\r\n    // Perform checks to determine if transferring a token to the\r\n    // `OwnedToken` contract should proceed\r\n    function isTokenTransferOK(address currentOwner, address newOwner)\r\n        public\r\n        pure\r\n        returns (bool ok)\r\n    {\r\n        // Check an arbitrary condition to see if transfer should proceed\r\n        return keccak256(abi.encodePacked(currentOwner, newOwner))[0] == 0x7f;\r\n    }\r\n}",
  "sourcePath": "C:/Go/workspace/src/github.com/ipfs/go-ipfs/dicContract/contracts/HelloWorld.sol",
  "compiler": {
    "name": "solc",
    "version": "0.5.8+commit.23d335f2.Emscripten.clang"
  },
  "schemaVersion": "3.0.11",
  "updatedAt": "2019-07-29T07:28:36.130Z",
  "devdoc": {
    "methods": {}
  },
  "userdoc": {
    "methods": {}
  }
}