{
  "contractName": "userGroups",
  "abi": [
    {
      "constant": true,
      "inputs": [],
      "name": "creater",
      "outputs": [
        {
          "name": "",
          "type": "address"
        }
      ],
      "payable": false,
      "stateMutability": "view",
      "type": "function"
    },
    {
      "constant": true,
      "inputs": [],
      "name": "ownerToGroups",
      "outputs": [
        {
          "name": "size",
          "type": "uint256"
        }
      ],
      "payable": false,
      "stateMutability": "view",
      "type": "function"
    },
    {
      "inputs": [],
      "payable": false,
      "stateMutability": "nonpayable",
      "type": "constructor"
    },
    {
      "anonymous": false,
      "inputs": [
        {
          "indexed": false,
          "name": "name",
          "type": "string"
        },
        {
          "indexed": false,
          "name": "value",
          "type": "address"
        }
      ],
      "name": "groups",
      "type": "event"
    },
    {
      "anonymous": false,
      "inputs": [
        {
          "indexed": false,
          "name": "add",
          "type": "address"
        },
        {
          "indexed": false,
          "name": "name",
          "type": "string"
        },
        {
          "indexed": false,
          "name": "value",
          "type": "address"
        }
      ],
      "name": "_updateUserGroup",
      "type": "event"
    },
    {
      "anonymous": false,
      "inputs": [
        {
          "indexed": false,
          "name": "name",
          "type": "string"
        }
      ],
      "name": "_deleteGroupByName",
      "type": "event"
    },
    {
      "anonymous": false,
      "inputs": [
        {
          "indexed": false,
          "name": "owner",
          "type": "address"
        },
        {
          "indexed": false,
          "name": "name",
          "type": "string"
        }
      ],
      "name": "_deleteOwnerRec",
      "type": "event"
    },
    {
      "constant": false,
      "inputs": [
        {
          "name": "name",
          "type": "string"
        },
        {
          "name": "value",
          "type": "address"
        }
      ],
      "name": "updateUserGroupByAddress",
      "outputs": [
        {
          "name": "res",
          "type": "bool"
        }
      ],
      "payable": false,
      "stateMutability": "nonpayable",
      "type": "function"
    },
    {
      "constant": false,
      "inputs": [
        {
          "name": "name",
          "type": "string"
        }
      ],
      "name": "updateUserGroupWithNewGroup",
      "outputs": [
        {
          "name": "res",
          "type": "bool"
        }
      ],
      "payable": false,
      "stateMutability": "nonpayable",
      "type": "function"
    },
    {
      "constant": false,
      "inputs": [],
      "name": "userGroupCreator",
      "outputs": [
        {
          "name": "addr",
          "type": "address"
        }
      ],
      "payable": false,
      "stateMutability": "nonpayable",
      "type": "function"
    },
    {
      "constant": true,
      "inputs": [
        {
          "name": "owner",
          "type": "address"
        }
      ],
      "name": "getGroupCount",
      "outputs": [
        {
          "name": "",
          "type": "uint256"
        }
      ],
      "payable": false,
      "stateMutability": "view",
      "type": "function"
    },
    {
      "constant": true,
      "inputs": [
        {
          "name": "owner",
          "type": "address"
        },
        {
          "name": "index",
          "type": "uint256"
        }
      ],
      "name": "getGroupByIndex",
      "outputs": [
        {
          "name": "",
          "type": "string"
        },
        {
          "name": "",
          "type": "address"
        }
      ],
      "payable": false,
      "stateMutability": "view",
      "type": "function"
    },
    {
      "constant": false,
      "inputs": [
        {
          "name": "name",
          "type": "string"
        }
      ],
      "name": "deleteGroupByName",
      "outputs": [
        {
          "name": "res",
          "type": "bool"
        }
      ],
      "payable": false,
      "stateMutability": "nonpayable",
      "type": "function"
    },
    {
      "constant": false,
      "inputs": [],
      "name": "deleteOwnerRec",
      "outputs": [
        {
          "name": "res",
          "type": "bool"
        }
      ],
      "payable": false,
      "stateMutability": "nonpayable",
      "type": "function"
    }
  ],
  "bytecode": "0x608060405234801561001057600080fd5b50336000806101000a81548173ffffffffffffffffffffffffffffffffffffffff021916908373ffffffffffffffffffffffffffffffffffffffff16021790555061286a806100606000396000f3fe608060405234801561001057600080fd5b50600436106100935760003560e01c806375e2f29c1161006657806375e2f29c146102f25780638e933ef7146103c557806396a2f896146103e3578063d4eeccce1461043b578063f02b1b4e1461053557610093565b806316a94bbf146100985780632bc07c5a1461016b5780633847f37b146101b557806345653a6d146102a8575b600080fd5b610151600480360360208110156100ae57600080fd5b81019080803590602001906401000000008111156100cb57600080fd5b8201836020820111156100dd57600080fd5b803590602001918460018302840111640100000000831117156100ff57600080fd5b91908080601f016020809104026020016040519081016040528093929190818152602001838380828437600081840152601f19601f820116905080830192505050505050509192919290505050610557565b604051808215151515815260200191505060405180910390f35b6101736107d3565b604051808273ffffffffffffffffffffffffffffffffffffffff1673ffffffffffffffffffffffffffffffffffffffff16815260200191505060405180910390f35b61028e600480360360408110156101cb57600080fd5b81019080803590602001906401000000008111156101e857600080fd5b8201836020820111156101fa57600080fd5b8035906020019184600183028401116401000000008311171561021c57600080fd5b91908080601f016020809104026020016040519081016040528093929190818152602001838380828437600081840152601f19601f820116905080830192505050505050509192919290803573ffffffffffffffffffffffffffffffffffffffff16906020019092919050505061083a565b604051808215151515815260200191505060405180910390f35b6102b0610aab565b604051808273ffffffffffffffffffffffffffffffffffffffff1673ffffffffffffffffffffffffffffffffffffffff16815260200191505060405180910390f35b6103ab6004803603602081101561030857600080fd5b810190808035906020019064010000000081111561032557600080fd5b82018360208201111561033757600080fd5b8035906020019184600183028401116401000000008311171561035957600080fd5b91908080601f016020809104026020016040519081016040528093929190818152602001838380828437600081840152601f19601f820116905080830192505050505050509192919290505050610ad0565b604051808215151515815260200191505060405180910390f35b6103cd611025565b6040518082815260200191505060405180910390f35b610425600480360360208110156103f957600080fd5b81019080803573ffffffffffffffffffffffffffffffffffffffff169060200190929190505050611031565b6040518082815260200191505060405180910390f35b6104876004803603604081101561045157600080fd5b81019080803573ffffffffffffffffffffffffffffffffffffffff16906020019092919080359060200190929190505050611157565b60405180806020018373ffffffffffffffffffffffffffffffffffffffff1673ffffffffffffffffffffffffffffffffffffffff168152602001828103825284818151815260200191508051906020019080838360005b838110156104f95780820151818401526020810190506104de565b50505050905090810190601f1680156105265780820380516001836020036101000a031916815260200191505b50935050505060405180910390f35b61053d611388565b604051808215151515815260200191505060405180910390f35b6000806105626107d3565b905073__addrToMapping_________________________63e2bfd5ef60013386856040518563ffffffff1660e01b8152600401808581526020018473ffffffffffffffffffffffffffffffffffffffff1673ffffffffffffffffffffffffffffffffffffffff168152602001806020018373ffffffffffffffffffffffffffffffffffffffff1673ffffffffffffffffffffffffffffffffffffffff168152602001828103825284818151815260200191508051906020019080838360005b8381101561063c578082015181840152602081019050610621565b50505050905090810190601f1680156106695780820380516001836020036101000a031916815260200191505b509550505050505060206040518083038186803b15801561068957600080fd5b505af415801561069d573d6000803e3d6000fd5b505050506040513d60208110156106b357600080fd5b8101908080519060200190929190505050507f9b4a33bb61ca8ea8f298d84955207994837a4921e3ed0741753f5ca9a3456d9d338483604051808473ffffffffffffffffffffffffffffffffffffffff1673ffffffffffffffffffffffffffffffffffffffff168152602001806020018373ffffffffffffffffffffffffffffffffffffffff1673ffffffffffffffffffffffffffffffffffffffff168152602001828103825284818151815260200191508051906020019080838360005b8381101561078d578082015181840152602081019050610772565b50505050905090810190601f1680156107ba5780820380516001836020036101000a031916815260200191505b5094505050505060405180910390a16001915050919050565b6000336040516107e290611a36565b808273ffffffffffffffffffffffffffffffffffffffff1673ffffffffffffffffffffffffffffffffffffffff168152602001915050604051809103906000f080158015610834573d6000803e3d6000fd5b50905090565b600073__addrToMapping_________________________63e2bfd5ef60013386866040518563ffffffff1660e01b8152600401808581526020018473ffffffffffffffffffffffffffffffffffffffff1673ffffffffffffffffffffffffffffffffffffffff168152602001806020018373ffffffffffffffffffffffffffffffffffffffff1673ffffffffffffffffffffffffffffffffffffffff168152602001828103825284818151815260200191508051906020019080838360005b838110156109145780820151818401526020810190506108f9565b50505050905090810190601f1680156109415780820380516001836020036101000a031916815260200191505b509550505050505060206040518083038186803b15801561096157600080fd5b505af4158015610975573d6000803e3d6000fd5b505050506040513d602081101561098b57600080fd5b8101908080519060200190929190505050507f9b4a33bb61ca8ea8f298d84955207994837a4921e3ed0741753f5ca9a3456d9d338484604051808473ffffffffffffffffffffffffffffffffffffffff1673ffffffffffffffffffffffffffffffffffffffff168152602001806020018373ffffffffffffffffffffffffffffffffffffffff1673ffffffffffffffffffffffffffffffffffffffff168152602001828103825284818151815260200191508051906020019080838360005b83811015610a65578082015181840152602081019050610a4a565b50505050905090810190601f168015610a925780820380516001836020036101000a031916815260200191505b5094505050505060405180910390a16001905092915050565b6000809054906101000a900473ffffffffffffffffffffffffffffffffffffffff1681565b600080151573__addrToMapping_________________________63731973276001336040518363ffffffff1660e01b8152600401808381526020018273ffffffffffffffffffffffffffffffffffffffff1673ffffffffffffffffffffffffffffffffffffffff1681526020019250505060206040518083038186803b158015610b5957600080fd5b505af4158015610b6d573d6000803e3d6000fd5b505050506040513d6020811015610b8357600080fd5b810190808051906020019092919050505015151415610ba55760009050611020565b6000151573__addrToMapping_________________________635bf71d02600160000160003373ffffffffffffffffffffffffffffffffffffffff1673ffffffffffffffffffffffffffffffffffffffff168152602001908152602001600020600101856040518363ffffffff1660e01b81526004018083815260200180602001828103825283818151815260200191508051906020019080838360005b83811015610c5e578082015181840152602081019050610c43565b50505050905090810190601f168015610c8b5780820380516001836020036101000a031916815260200191505b50935050505060206040518083038186803b158015610ca957600080fd5b505af4158015610cbd573d6000803e3d6000fd5b505050506040513d6020811015610cd357600080fd5b810190808051906020019092919050505015151415610cf55760009050611020565b6000600160000160003373ffffffffffffffffffffffffffffffffffffffff1673ffffffffffffffffffffffffffffffffffffffff168152602001908152602001600020600101600001836040518082805190602001908083835b60208310610d735780518252602082019150602081019050602083039250610d50565b6001836020036101000a038019825116818451168082178552505050505050905001915050908152602001604051809103902060010160009054906101000a900473ffffffffffffffffffffffffffffffffffffffff16905060008190508073ffffffffffffffffffffffffffffffffffffffff16639c4e9f7c60016040518263ffffffff1660e01b81526004018082151515158152602001915050600060405180830381600087803b158015610e2957600080fd5b505af1158015610e3d573d6000803e3d6000fd5b5050505073__addrToMapping_________________________63038dac3a600160000160003373ffffffffffffffffffffffffffffffffffffffff1673ffffffffffffffffffffffffffffffffffffffff168152602001908152602001600020600101866040518363ffffffff1660e01b81526004018083815260200180602001828103825283818151815260200191508051906020019080838360005b83811015610ef6578082015181840152602081019050610edb565b50505050905090810190601f168015610f235780820380516001836020036101000a031916815260200191505b50935050505060206040518083038186803b158015610f4157600080fd5b505af4158015610f55573d6000803e3d6000fd5b505050506040513d6020811015610f6b57600080fd5b8101908080519060200190929190505050507f0d21241cbf9584f265935b748e8240b0397928e543a3d915fa70471f722c8ce3846040518080602001828103825283818151815260200191508051906020019080838360005b83811015610fdf578082015181840152602081019050610fc4565b50505050905090810190601f16801561100c5780820380516001836020036101000a031916815260200191505b509250505060405180910390a16001925050505b919050565b60018060020154905081565b600080151573__addrToMapping_________________________63731973276001856040518363ffffffff1660e01b8152600401808381526020018273ffffffffffffffffffffffffffffffffffffffff1673ffffffffffffffffffffffffffffffffffffffff1681526020019250505060206040518083038186803b1580156110ba57600080fd5b505af41580156110ce573d6000803e3d6000fd5b505050506040513d60208110156110e457600080fd5b8101908080519060200190929190505050151514156111065760009050611152565b600160000160008373ffffffffffffffffffffffffffffffffffffffff1673ffffffffffffffffffffffffffffffffffffffff1681526020019081526020016000206001016002015490505b919050565b6060600080151573__addrToMapping_________________________63731973276001876040518363ffffffff1660e01b8152600401808381526020018273ffffffffffffffffffffffffffffffffffffffff1673ffffffffffffffffffffffffffffffffffffffff1681526020019250505060206040518083038186803b1580156111e257600080fd5b505af41580156111f6573d6000803e3d6000fd5b505050506040513d602081101561120c57600080fd5b8101908080519060200190929190505050151514156112435760405180602001604052806000815250600080905091509150611381565b73__addrToMapping_________________________63852579dd600160000160008773ffffffffffffffffffffffffffffffffffffffff1673ffffffffffffffffffffffffffffffffffffffff168152602001908152602001600020600101856040518363ffffffff1660e01b8152600401808381526020018281526020019250505060006040518083038186803b1580156112de57600080fd5b505af41580156112f2573d6000803e3d6000fd5b505050506040513d6000823e3d601f19601f82011682018060405250604081101561131c57600080fd5b81019080805164010000000081111561133457600080fd5b8281019050602081018481111561134a57600080fd5b815185600182028301116401000000008211171561136757600080fd5b505092919060200180519060200190929190505050915091505b9250929050565b600080151573__addrToMapping_________________________63731973276001336040518363ffffffff1660e01b8152600401808381526020018273ffffffffffffffffffffffffffffffffffffffff1673ffffffffffffffffffffffffffffffffffffffff1681526020019250505060206040518083038186803b15801561141157600080fd5b505af4158015611425573d6000803e3d6000fd5b505050506040513d602081101561143b57600080fd5b81019080805190602001909291905050501515141561145d5760009050611a33565b6000600160000160003373ffffffffffffffffffffffffffffffffffffffff1673ffffffffffffffffffffffffffffffffffffffff1681526020019081526020016000206001019050600073__addrToMapping_________________________6379f0eb9e836040518263ffffffff1660e01b81526004018082815260200191505060206040518083038186803b1580156114f757600080fd5b505af415801561150b573d6000803e3d6000fd5b505050506040513d602081101561152157600080fd5b810190808051906020019092919050505090505b73__addrToMapping_________________________633e391f6f83836040518363ffffffff1660e01b8152600401808381526020018281526020019250505060206040518083038186803b15801561158c57600080fd5b505af41580156115a0573d6000803e3d6000fd5b505050506040513d60208110156115b657600080fd5b810190808051906020019092919050505015611970576060600073__addrToMapping_________________________63852579dd85856040518363ffffffff1660e01b8152600401808381526020018281526020019250505060006040518083038186803b15801561162757600080fd5b505af415801561163b573d6000803e3d6000fd5b505050506040513d6000823e3d601f19601f82011682018060405250604081101561166557600080fd5b81019080805164010000000081111561167d57600080fd5b8281019050602081018481111561169357600080fd5b81518560018202830111640100000000821117156116b057600080fd5b5050929190602001805190602001909291905050509150915073__addrToMapping_________________________63038dac3a600160000160003373ffffffffffffffffffffffffffffffffffffffff1673ffffffffffffffffffffffffffffffffffffffff168152602001908152602001600020600101846040518363ffffffff1660e01b81526004018083815260200180602001828103825283818151815260200191508051906020019080838360005b8381101561177e578082015181840152602081019050611763565b50505050905090810190601f1680156117ab5780820380516001836020036101000a031916815260200191505b50935050505060206040518083038186803b1580156117c957600080fd5b505af41580156117dd573d6000803e3d6000fd5b505050506040513d60208110156117f357600080fd5b8101908080519060200190929190505050507f9064673ca868275dc97f9fe659c8421d0fa89b07a8578773dd156336d186c3d33383604051808373ffffffffffffffffffffffffffffffffffffffff1673ffffffffffffffffffffffffffffffffffffffff16815260200180602001828103825283818151815260200191508051906020019080838360005b8381101561189a57808201518184015260208101905061187f565b50505050905090810190601f1680156118c75780820380516001836020036101000a031916815260200191505b50935050505060405180910390a1505073__addrToMapping_________________________63e9f8aa8783836040518363ffffffff1660e01b8152600401808381526020018281526020019250505060206040518083038186803b15801561192e57600080fd5b505af4158015611942573d6000803e3d6000fd5b505050506040513d602081101561195857600080fd5b81019080805190602001909291905050509050611535565b5073__addrToMapping_________________________6323d8ae966001336040518363ffffffff1660e01b8152600401808381526020018273ffffffffffffffffffffffffffffffffffffffff1673ffffffffffffffffffffffffffffffffffffffff1681526020019250505060206040518083038186803b1580156119f557600080fd5b505af4158015611a09573d6000803e3d6000fd5b505050506040513d6020811015611a1f57600080fd5b810190808051906020019092919050505050505b90565b610dfb80611a448339019056fe608060405260008060146101000a81548160ff02191690831515021790555034801561002a57600080fd5b50604051602080610dfb8339810180604052602081101561004a57600080fd5b8101908080519060200190929190505050806000806101000a81548173ffffffffffffffffffffffffffffffffffffffff021916908373ffffffffffffffffffffffffffffffffffffffff16021790555050610d50806100ab6000396000f3fe608060405234801561001057600080fd5b50600436106100575760003560e01c806302d05d3f1461005c5780634c767d0f146100a65780636b35f7c11461010f578063878f70c9146101315780639c4e9f7c146101a3575b600080fd5b6100646101d3565b604051808273ffffffffffffffffffffffffffffffffffffffff1673ffffffffffffffffffffffffffffffffffffffff16815260200191505060405180910390f35b6100f5600480360360408110156100bc57600080fd5b81019080803573ffffffffffffffffffffffffffffffffffffffff169060200190929190803560ff1690602001909291905050506101f8565b604051808215151515815260200191505060405180910390f35b610117610705565b604051808215151515815260200191505060405180910390f35b6101736004803603602081101561014757600080fd5b81019080803573ffffffffffffffffffffffffffffffffffffffff169060200190929190505050610718565b60405180841515151581526020018315151515815260200182151515158152602001935050505060405180910390f35b6101d1600480360360208110156101b957600080fd5b81019080803515159060200190929190505050610b34565b005b6000809054906101000a900473ffffffffffffffffffffffffffffffffffffffff1681565b600073__addrToBool____________________________63da3f94266007336040518363ffffffff1660e01b8152600401808381526020018273ffffffffffffffffffffffffffffffffffffffff1673ffffffffffffffffffffffffffffffffffffffff1681526020019250505060206040518083038186803b15801561027e57600080fd5b505af4158015610292573d6000803e3d6000fd5b505050506040513d60208110156102a857600080fd5b81019080805190602001909291905050508061031057506000809054906101000a900473ffffffffffffffffffffffffffffffffffffffff1673ffffffffffffffffffffffffffffffffffffffff163373ffffffffffffffffffffffffffffffffffffffff16145b610365576040517f08c379a000000000000000000000000000000000000000000000000000000000815260040180806020018281038252602d815260200180610cf8602d913960400191505060405180910390fd5b60078260ff16118061037a575060008260ff16105b1561038857600090506106ff565b6000600160028460ff168161039957fe5b0660ff16146103a95760006103ac565b60015b905060018360ff169050506000600160028560ff16816103c857fe5b0660ff16146103d85760006103db565b60015b905060018460ff169050506000600160028660ff16816103f757fe5b0660ff161461040757600061040a565b60015b905073__addrToBool____________________________6398b3fbd7600188866040518463ffffffff1660e01b8152600401808481526020018373ffffffffffffffffffffffffffffffffffffffff1673ffffffffffffffffffffffffffffffffffffffff16815260200182151515158152602001935050505060206040518083038186803b15801561049c57600080fd5b505af41580156104b0573d6000803e3d6000fd5b505050506040513d60208110156104c657600080fd5b81019080805190602001909291905050505073__addrToBool____________________________6398b3fbd7600488856040518463ffffffff1660e01b8152600401808481526020018373ffffffffffffffffffffffffffffffffffffffff1673ffffffffffffffffffffffffffffffffffffffff16815260200182151515158152602001935050505060206040518083038186803b15801561056857600080fd5b505af415801561057c573d6000803e3d6000fd5b505050506040513d602081101561059257600080fd5b81019080805190602001909291905050505073__addrToBool____________________________6398b3fbd7600788846040518463ffffffff1660e01b8152600401808481526020018373ffffffffffffffffffffffffffffffffffffffff1673ffffffffffffffffffffffffffffffffffffffff16815260200182151515158152602001935050505060206040518083038186803b15801561063457600080fd5b505af4158015610648573d6000803e3d6000fd5b505050506040513d602081101561065e57600080fd5b8101908080519060200190929190505050507f9894bb533b126d657a7922559cc34561135edb194cf395b47e1c19e826056bae86848484604051808573ffffffffffffffffffffffffffffffffffffffff1673ffffffffffffffffffffffffffffffffffffffff16815260200184151515158152602001831515151581526020018215151515815260200194505050505060405180910390a1600193505050505b92915050565b600060149054906101000a900460ff1681565b60008060008060009054906101000a900473ffffffffffffffffffffffffffffffffffffffff1673ffffffffffffffffffffffffffffffffffffffff168473ffffffffffffffffffffffffffffffffffffffff161415610782576001806001925092509250610b2d565b60011515600060149054906101000a900460ff16151514156107ae576001806000925092509250610b2d565b6001151573__addrToBool____________________________63da3f94266001876040518363ffffffff1660e01b8152600401808381526020018273ffffffffffffffffffffffffffffffffffffffff1673ffffffffffffffffffffffffffffffffffffffff1681526020019250505060206040518083038186803b15801561083657600080fd5b505af415801561084a573d6000803e3d6000fd5b505050506040513d602081101561086057600080fd5b8101908080519060200190929190505050151514156108d357600160000160008573ffffffffffffffffffffffffffffffffffffffff1673ffffffffffffffffffffffffffffffffffffffff16815260200190815260200160002060010160009054906101000a900460ff1692506108d8565b600092505b6001151573__addrToBool____________________________63da3f94266004876040518363ffffffff1660e01b8152600401808381526020018273ffffffffffffffffffffffffffffffffffffffff1673ffffffffffffffffffffffffffffffffffffffff1681526020019250505060206040518083038186803b15801561096057600080fd5b505af4158015610974573d6000803e3d6000fd5b505050506040513d602081101561098a57600080fd5b8101908080519060200190929190505050151514156109fd57600460000160008573ffffffffffffffffffffffffffffffffffffffff1673ffffffffffffffffffffffffffffffffffffffff16815260200190815260200160002060010160009054906101000a900460ff169150610a02565b600091505b6001151573__addrToBool____________________________63da3f94266007876040518363ffffffff1660e01b8152600401808381526020018273ffffffffffffffffffffffffffffffffffffffff1673ffffffffffffffffffffffffffffffffffffffff1681526020019250505060206040518083038186803b158015610a8a57600080fd5b505af4158015610a9e573d6000803e3d6000fd5b505050506040513d6020811015610ab457600080fd5b810190808051906020019092919050505015151415610b2757600760000160008573ffffffffffffffffffffffffffffffffffffffff1673ffffffffffffffffffffffffffffffffffffffff16815260200190815260200160002060010160009054906101000a900460ff169050610b2c565b600090505b5b9193909250565b73__addrToBool____________________________63da3f94266007336040518363ffffffff1660e01b8152600401808381526020018273ffffffffffffffffffffffffffffffffffffffff1673ffffffffffffffffffffffffffffffffffffffff1681526020019250505060206040518083038186803b158015610bb857600080fd5b505af4158015610bcc573d6000803e3d6000fd5b505050506040513d6020811015610be257600080fd5b810190808051906020019092919050505080610c4a57506000809054906101000a900473ffffffffffffffffffffffffffffffffffffffff1673ffffffffffffffffffffffffffffffffffffffff163373ffffffffffffffffffffffffffffffffffffffff16145b610c9f576040517f08c379a000000000000000000000000000000000000000000000000000000000815260040180806020018281038252602d815260200180610cf8602d913960400191505060405180910390fd5b80600060146101000a81548160ff0219169083151502179055507f65539928111859040d829c780a5ecc7a052a3c160109013679271b2e5c46d88c81604051808215151515815260200191505060405180910390a15056fe4f6e6c79207065726d69737373696f6e20757365722063616e2063616c6c20746869732066756e6374696f6e2ea165627a7a72305820eb38e54b1b9940f4aa54d59fdecce1e39da853f40f0db4efb96a73c3968467b70029a165627a7a723058205cf06da1c1181e0043f8a911562a49c7a6af38be6594c3c676b82cbfcac498ca0029",
  "source": "pragma solidity >=0.4.22 <0.7.0;\r\n\r\nimport \"./mapping/addrToMapping.sol\";\r\nimport \"./userGroup.sol\";\r\n\r\n//Everyone can add their own user groups\r\ncontract userGroups {\r\n    address public creater;\r\n\r\n    addrToMapping.preitmap public ownerToGroups;\r\n    event groups(string name,address value);\r\n\r\n\r\n    constructor() public{\r\n        creater = msg.sender;\r\n    }\r\n\r\n    event _updateUserGroup(address add,string name,address value);\r\n    event _deleteGroupByName(string name);\r\n    event _deleteOwnerRec(address owner,string name);\r\n    function updateUserGroupByAddress(string memory name,address value)\r\n    public\r\n    returns (bool res)\r\n    {\r\n        addrToMapping.insert(ownerToGroups,msg.sender,name,value);\r\n        emit _updateUserGroup(msg.sender,name,value);\r\n        return true;\r\n    }\r\n\r\n    function updateUserGroupWithNewGroup(string memory name)\r\n    public\r\n    returns (bool res)\r\n    {\r\n        //if(addrToMapping.contains(ownerToGroups.data[msg.sender].value,name) == true)\r\n        // {\r\n        //     return false;\r\n        // }\r\n        userGroup value = userGroupCreator();\r\n        addrToMapping.insert(ownerToGroups,msg.sender,name,address(value));\r\n        emit _updateUserGroup(msg.sender,name,address(value));\r\n        return true;\r\n    }\r\n\r\n    function userGroupCreator() public returns (userGroup addr)\r\n    {\r\n        return new userGroup(msg.sender);\r\n    }\r\n\r\n//show usergroups\r\n    function getGroupCount(address owner) public view returns (uint){\r\n        if(addrToMapping.contains(ownerToGroups,owner) == false)\r\n            return 0;\r\n        return ownerToGroups.data[owner].value.size;\r\n    }\r\n\r\n    function getGroupByIndex(address owner,uint index) public view returns (string memory,address)\r\n    {\r\n        if(addrToMapping.contains(ownerToGroups,owner) == false)\r\n            return (string(\"\"),address(0));\r\n        return addrToMapping.iterate_get(ownerToGroups.data[owner].value,index);\r\n    }\r\n\r\n    // function showGroups(address owner) public returns (bool res)\r\n    // {\r\n    //     if(addrToMapping.contains(ownerToGroups,owner) == false)\r\n    //         return false;\r\n    //     addrToMapping.itmap storage itmap = ownerToGroups.data[owner].value;\r\n    //     for(uint256 i = addrToMapping.iterate_start(itmap);addrToMapping.iterate_valid(itmap,i); i = addrToMapping.iterate_next(itmap,i))\r\n    //     {\r\n    //         (string memory name, address value) = addrToMapping.iterate_get(itmap,i);\r\n    //         emit groups(name, value);\r\n    //     }\r\n    //     return true;\r\n    // }\r\n\r\n    function deleteGroupByName(string memory name) public returns (bool res)\r\n    {\r\n        if(addrToMapping.contains(ownerToGroups,msg.sender) == false)\r\n            return false;\r\n\r\n        if(addrToMapping.contains(ownerToGroups.data[msg.sender].value,name) == false)\r\n        {\r\n            return false;\r\n        }\r\n        else\r\n        {\r\n            address addr = ownerToGroups.data[msg.sender].value.data[name].value;\r\n            userGroup uG = userGroup(addr);\r\n            uG.changeStatusOfUserGroup(true);\r\n            addrToMapping.remove(ownerToGroups.data[msg.sender].value,name);\r\n            emit _deleteGroupByName(name);\r\n            return true;\r\n        }\r\n    }\r\n\r\n    function deleteOwnerRec() public returns(bool res)\r\n    {\r\n        if(addrToMapping.contains(ownerToGroups,msg.sender) == false)\r\n            return false;\r\n        addrToMapping.itmap storage itmap = ownerToGroups.data[msg.sender].value;\r\n        for(uint256 i = addrToMapping.iterate_start(itmap);addrToMapping.iterate_valid(itmap,i); i = addrToMapping.iterate_next(itmap,i))\r\n        {\r\n            (string memory name, address value) = addrToMapping.iterate_get(itmap,i);\r\n            addrToMapping.remove(ownerToGroups.data[msg.sender].value,name);\r\n            emit _deleteOwnerRec(msg.sender,name);\r\n        }\r\n        addrToMapping.remove(ownerToGroups,msg.sender);\r\n\r\n    }\r\n}\r\n\r\n\r\n\r\n",
  "sourcePath": "C:/Go/workspace/src/github.com/ipfs/go-ipfs/dicContract/contracts/userGroups.sol",
  "compiler": {
    "name": "solc",
    "version": "0.5.8+commit.23d335f2.Emscripten.clang"
  },
  "schemaVersion": "3.0.11",
  "updatedAt": "2019-08-01T11:16:52.027Z",
  "devdoc": {
    "methods": {}
  },
  "userdoc": {
    "methods": {}
  }
}