{
  "contractName": "userGroup",
  "abi": [
    {
      "constant": true,
      "inputs": [],
      "name": "creator",
      "outputs": [
        {
          "name": "",
          "type": "address"
        }
      ],
      "payable": false,
      "stateMutability": "view",
      "type": "function"
    },
    {
      "constant": true,
      "inputs": [],
      "name": "deleted",
      "outputs": [
        {
          "name": "",
          "type": "bool"
        }
      ],
      "payable": false,
      "stateMutability": "view",
      "type": "function"
    },
    {
      "inputs": [
        {
          "name": "sender",
          "type": "address"
        }
      ],
      "payable": false,
      "stateMutability": "nonpayable",
      "type": "constructor"
    },
    {
      "anonymous": false,
      "inputs": [
        {
          "indexed": false,
          "name": "key",
          "type": "address"
        },
        {
          "indexed": false,
          "name": "read",
          "type": "bool"
        },
        {
          "indexed": false,
          "name": "update",
          "type": "bool"
        },
        {
          "indexed": false,
          "name": "change",
          "type": "bool"
        }
      ],
      "name": "_updateUser",
      "type": "event"
    },
    {
      "anonymous": false,
      "inputs": [
        {
          "indexed": false,
          "name": "status",
          "type": "bool"
        }
      ],
      "name": "_changeStatusOfUserGroup",
      "type": "event"
    },
    {
      "constant": false,
      "inputs": [
        {
          "name": "key",
          "type": "address"
        },
        {
          "name": "permisssion",
          "type": "uint8"
        }
      ],
      "name": "andOrupdateUser",
      "outputs": [
        {
          "name": "res",
          "type": "bool"
        }
      ],
      "payable": false,
      "stateMutability": "nonpayable",
      "type": "function"
    },
    {
      "constant": false,
      "inputs": [
        {
          "name": "status",
          "type": "bool"
        }
      ],
      "name": "changeStatusOfUserGroup",
      "outputs": [],
      "payable": false,
      "stateMutability": "nonpayable",
      "type": "function"
    },
    {
      "constant": true,
      "inputs": [
        {
          "name": "key",
          "type": "address"
        }
      ],
      "name": "getUserPerssion",
      "outputs": [
        {
          "name": "read",
          "type": "bool"
        },
        {
          "name": "update",
          "type": "bool"
        },
        {
          "name": "change",
          "type": "bool"
        }
      ],
      "payable": false,
      "stateMutability": "view",
      "type": "function"
    }
  ],
  "bytecode": "0x608060405260008060146101000a81548160ff02191690831515021790555034801561002a57600080fd5b50604051602080610dfb8339810180604052602081101561004a57600080fd5b8101908080519060200190929190505050806000806101000a81548173ffffffffffffffffffffffffffffffffffffffff021916908373ffffffffffffffffffffffffffffffffffffffff16021790555050610d50806100ab6000396000f3fe608060405234801561001057600080fd5b50600436106100575760003560e01c806302d05d3f1461005c5780634c767d0f146100a65780636b35f7c11461010f578063878f70c9146101315780639c4e9f7c146101a3575b600080fd5b6100646101d3565b604051808273ffffffffffffffffffffffffffffffffffffffff1673ffffffffffffffffffffffffffffffffffffffff16815260200191505060405180910390f35b6100f5600480360360408110156100bc57600080fd5b81019080803573ffffffffffffffffffffffffffffffffffffffff169060200190929190803560ff1690602001909291905050506101f8565b604051808215151515815260200191505060405180910390f35b610117610705565b604051808215151515815260200191505060405180910390f35b6101736004803603602081101561014757600080fd5b81019080803573ffffffffffffffffffffffffffffffffffffffff169060200190929190505050610718565b60405180841515151581526020018315151515815260200182151515158152602001935050505060405180910390f35b6101d1600480360360208110156101b957600080fd5b81019080803515159060200190929190505050610b34565b005b6000809054906101000a900473ffffffffffffffffffffffffffffffffffffffff1681565b600073__addrToBool____________________________63da3f94266007336040518363ffffffff1660e01b8152600401808381526020018273ffffffffffffffffffffffffffffffffffffffff1673ffffffffffffffffffffffffffffffffffffffff1681526020019250505060206040518083038186803b15801561027e57600080fd5b505af4158015610292573d6000803e3d6000fd5b505050506040513d60208110156102a857600080fd5b81019080805190602001909291905050508061031057506000809054906101000a900473ffffffffffffffffffffffffffffffffffffffff1673ffffffffffffffffffffffffffffffffffffffff163373ffffffffffffffffffffffffffffffffffffffff16145b610365576040517f08c379a000000000000000000000000000000000000000000000000000000000815260040180806020018281038252602d815260200180610cf8602d913960400191505060405180910390fd5b60078260ff16118061037a575060008260ff16105b1561038857600090506106ff565b6000600160028460ff168161039957fe5b0660ff16146103a95760006103ac565b60015b905060018360ff169050506000600160028560ff16816103c857fe5b0660ff16146103d85760006103db565b60015b905060018460ff169050506000600160028660ff16816103f757fe5b0660ff161461040757600061040a565b60015b905073__addrToBool____________________________6398b3fbd7600188866040518463ffffffff1660e01b8152600401808481526020018373ffffffffffffffffffffffffffffffffffffffff1673ffffffffffffffffffffffffffffffffffffffff16815260200182151515158152602001935050505060206040518083038186803b15801561049c57600080fd5b505af41580156104b0573d6000803e3d6000fd5b505050506040513d60208110156104c657600080fd5b81019080805190602001909291905050505073__addrToBool____________________________6398b3fbd7600488856040518463ffffffff1660e01b8152600401808481526020018373ffffffffffffffffffffffffffffffffffffffff1673ffffffffffffffffffffffffffffffffffffffff16815260200182151515158152602001935050505060206040518083038186803b15801561056857600080fd5b505af415801561057c573d6000803e3d6000fd5b505050506040513d602081101561059257600080fd5b81019080805190602001909291905050505073__addrToBool____________________________6398b3fbd7600788846040518463ffffffff1660e01b8152600401808481526020018373ffffffffffffffffffffffffffffffffffffffff1673ffffffffffffffffffffffffffffffffffffffff16815260200182151515158152602001935050505060206040518083038186803b15801561063457600080fd5b505af4158015610648573d6000803e3d6000fd5b505050506040513d602081101561065e57600080fd5b8101908080519060200190929190505050507f9894bb533b126d657a7922559cc34561135edb194cf395b47e1c19e826056bae86848484604051808573ffffffffffffffffffffffffffffffffffffffff1673ffffffffffffffffffffffffffffffffffffffff16815260200184151515158152602001831515151581526020018215151515815260200194505050505060405180910390a1600193505050505b92915050565b600060149054906101000a900460ff1681565b60008060008060009054906101000a900473ffffffffffffffffffffffffffffffffffffffff1673ffffffffffffffffffffffffffffffffffffffff168473ffffffffffffffffffffffffffffffffffffffff161415610782576001806001925092509250610b2d565b60011515600060149054906101000a900460ff16151514156107ae576001806000925092509250610b2d565b6001151573__addrToBool____________________________63da3f94266001876040518363ffffffff1660e01b8152600401808381526020018273ffffffffffffffffffffffffffffffffffffffff1673ffffffffffffffffffffffffffffffffffffffff1681526020019250505060206040518083038186803b15801561083657600080fd5b505af415801561084a573d6000803e3d6000fd5b505050506040513d602081101561086057600080fd5b8101908080519060200190929190505050151514156108d357600160000160008573ffffffffffffffffffffffffffffffffffffffff1673ffffffffffffffffffffffffffffffffffffffff16815260200190815260200160002060010160009054906101000a900460ff1692506108d8565b600092505b6001151573__addrToBool____________________________63da3f94266004876040518363ffffffff1660e01b8152600401808381526020018273ffffffffffffffffffffffffffffffffffffffff1673ffffffffffffffffffffffffffffffffffffffff1681526020019250505060206040518083038186803b15801561096057600080fd5b505af4158015610974573d6000803e3d6000fd5b505050506040513d602081101561098a57600080fd5b8101908080519060200190929190505050151514156109fd57600460000160008573ffffffffffffffffffffffffffffffffffffffff1673ffffffffffffffffffffffffffffffffffffffff16815260200190815260200160002060010160009054906101000a900460ff169150610a02565b600091505b6001151573__addrToBool____________________________63da3f94266007876040518363ffffffff1660e01b8152600401808381526020018273ffffffffffffffffffffffffffffffffffffffff1673ffffffffffffffffffffffffffffffffffffffff1681526020019250505060206040518083038186803b158015610a8a57600080fd5b505af4158015610a9e573d6000803e3d6000fd5b505050506040513d6020811015610ab457600080fd5b810190808051906020019092919050505015151415610b2757600760000160008573ffffffffffffffffffffffffffffffffffffffff1673ffffffffffffffffffffffffffffffffffffffff16815260200190815260200160002060010160009054906101000a900460ff169050610b2c565b600090505b5b9193909250565b73__addrToBool____________________________63da3f94266007336040518363ffffffff1660e01b8152600401808381526020018273ffffffffffffffffffffffffffffffffffffffff1673ffffffffffffffffffffffffffffffffffffffff1681526020019250505060206040518083038186803b158015610bb857600080fd5b505af4158015610bcc573d6000803e3d6000fd5b505050506040513d6020811015610be257600080fd5b810190808051906020019092919050505080610c4a57506000809054906101000a900473ffffffffffffffffffffffffffffffffffffffff1673ffffffffffffffffffffffffffffffffffffffff163373ffffffffffffffffffffffffffffffffffffffff16145b610c9f576040517f08c379a000000000000000000000000000000000000000000000000000000000815260040180806020018281038252602d815260200180610cf8602d913960400191505060405180910390fd5b80600060146101000a81548160ff0219169083151502179055507f65539928111859040d829c780a5ecc7a052a3c160109013679271b2e5c46d88c81604051808215151515815260200191505060405180910390a15056fe4f6e6c79207065726d69737373696f6e20757365722063616e2063616c6c20746869732066756e6374696f6e2ea165627a7a72305820eb38e54b1b9940f4aa54d59fdecce1e39da853f40f0db4efb96a73c3968467b70029",
  "source": "pragma solidity >=0.4.22 <0.7.0;\r\n\r\nimport \"./mapping/addrToBool.sol\";\r\ncontract userGroup{\r\n    //add securte as part of value ?\r\n    address public creator;\r\n    bool public deleted = false;\r\n    addrToBool.itmap readmap;\r\n    addrToBool.itmap updatemap;\r\n    addrToBool.itmap changePermissionmap;\r\n    \r\n    \r\n    event _updateUser(address key,bool read,bool update,bool change);\r\n    event _changeStatusOfUserGroup(bool status);\r\n    \r\n    \r\n    modifier onlyChangePermission {\r\n        require(\r\n            addrToBool.contains(changePermissionmap,msg.sender) || msg.sender == creator,\r\n            \"Only permisssion user can call this function.\"\r\n        );\r\n        _;\r\n    }\r\n    \r\n    constructor(address sender) public{\r\n        creator = sender;\r\n        \r\n    }\r\n    \r\n    // function init() public {\r\n    //     addrToBool.insert(changePermissionmap,creator,true);\r\n    // }\r\n    \r\n    function andOrupdateUser(address key,uint8 permisssion) external onlyChangePermission returns (bool res)\r\n    {\r\n        if(permisssion > 7 || permisssion < 0) return false;\r\n        bool read = permisssion % 2 == 1 ? true: false;\r\n        permisssion >> 1;\r\n        bool update = permisssion % 2 == 1 ? true: false;\r\n        permisssion >> 1;\r\n        bool change = permisssion % 2 == 1 ? true: false;\r\n        \r\n        addrToBool.insert(readmap,key,read);\r\n        addrToBool.insert(updatemap,key,update);\r\n        addrToBool.insert(changePermissionmap,key,change);\r\n        emit _updateUser(key,read,update,change);\r\n        return true;\r\n    }\r\n    \r\n    function changeStatusOfUserGroup(bool status) external onlyChangePermission {\r\n        deleted = status;\r\n        emit _changeStatusOfUserGroup(status);\r\n    }\r\n    function getUserPerssion(address key) external view returns (bool read,bool update,bool change)\r\n    {\r\n        if(key == creator) return (true,true,true);\r\n        if(deleted == true) return(true,true,false);\r\n        if(addrToBool.contains(readmap,key) == true) \r\n            read = readmap.data[key].value;\r\n        else \r\n            read = false;\r\n            \r\n        if(addrToBool.contains(updatemap,key) == true)\r\n            update = updatemap.data[key].value;\r\n        else\r\n            update = false;\r\n            \r\n        if(addrToBool.contains(changePermissionmap,key) == true)\r\n            change = changePermissionmap.data[key].value;\r\n        else\r\n            change = false;\r\n    }\r\n}\r\n\r\n\r\n",
  "sourcePath": "C:\\Go\\workspace\\src\\github.com\\ipfs\\go-ipfs\\dicContract\\contracts\\userGroup.sol",
  "compiler": {
    "name": "solc",
    "version": "0.5.8+commit.23d335f2.Emscripten.clang"
  },
  "schemaVersion": "3.0.11",
  "updatedAt": "2019-08-01T11:16:50.370Z",
  "devdoc": {
    "methods": {}
  },
  "userdoc": {
    "methods": {}
  }
}